:1000000001308A000A290000FF00030E8301A100CD
:100010007F08A0000A08A7008A01A00E0408A20019
:100020007708A3007808A4007908A5007A08A6003C
:10003000831383128C308400801E20288C1A96280B
:10004000220884002308F7002408F8002508F90096
:100050002608FA0027088A00210E8300FF0E7F0E73
:1000600009000A108A100A118207313400340A107C
:100070008A100A118207323400343808FA0037082F
:10008000840083137A1883170008BB003A08FA002B
:100090003908840083137A18831700083B02031D74
:1000A00068283808FA003708840083137A18831701
:1000B0008008031D5E280030F80080283808FA0008
:1000C0003708B70A0319B80AB90A0319BA0A3D284A
:1000D0003808FA003708840083133818831700089B
:1000E000BB003A08FA003908840083133A188317D2
:1000F00000083B0203187E28FF307F280130F800FB
:100100000800373084008313000803199528013054
:10011000F800F701F70B8A28F80B89284A30F70016
:10012000F70B90289328800B87280800AB01AC01BF
:100130002B30840083138403840A8C1E9D281808A6
:10014000A8001A08F800A81CA72818121816780882
:1001500080000D300002031D9C288001B001B10118
:10016000B301B401B701B8013030840083133708FC
:10017000840738083120800000380319C228B80AE3
:10018000B70AB428B701B8013330840083133708A5
:10019000840738083720800000380319D228B80AAD
:1001A000B70AC428B8012B30B700BA013030B90003
:1001B0003D20F808031DDE2805100729B8012B3063
:1001C000B700BA013330B9003D20F808031DEA2812
:1001D000051407290130B60036080A3C031C07291C
:1001E00085016330F700F70BF328F628033085000C
:1001F000E930F700F70BFA2885013230B70081208B
:10020000033085003230B7008120B60AEC288C120A
:100210008A112028840183131F30830583168E15CD
:1002200019309900A630980090308312980007305A
:100230009F00A801A901AA0107309F0083160508A5
:1002400085000330F700F70B232983121F080C13D6
:1002500083169F018C16C03083128B04FC3065001E
:10026000013085005A300C1E33299900362963006D
:02400E00183F59
:00000001FF
;PIC16F628A
;CRC=DE63  CREATED="23-oct-12 18:13"
